:100000000C9434000C94FE000C9451000C9451009C
:100010000C9451000C9451000C9451000C9451001C
:100020000C9451000C9451000C9451000C9451000C
:100030000C9451000C9451000C9451000C945100FC
:100040000C9453000C9451000C9451000C945100EA
:100050000C9451000C9451000C9451000C945100DC
:100060000C9451000C94510011241FBECFEFD4E02A
:10007000DEBFCDBF11E0A0E0B1E0EEE0F6E002C0EF
:1000800005900D92A038B107D9F711E0A0E8B1E0D2
:1000900001C01D92A439B107E1F70E9483010C94BD
:1000A00005030C9400001F920F920FB60F921124BB
:1000B0008F939F93AF93BF9380918401909185011B
:1000C000A0918601B09187010196A11DB11D809379
:1000D000840190938501A0938601B093870180915C
:1000E000880190918901A0918A01B0918B010196BC
:1000F000A11DB11D8093880190938901A0938A016D
:10010000B0938B0180918C0190918D01A0918E0113
:10011000B0918F010196A11DB11D80938C01909328
:100120008D01A0938E01B0938F01809190019091E9
:100130009101A0919201B09193010196A11DB11D71
:100140008093900190939101A0939201B0939301B9
:1001500016BCBF91AF919F918F910F900FBE0F90E2
:100160001F901895E82FF894F0E0EE0FFF1FEE0FA8
:10017000FF1FEC57FE4F20813181428153817894DB
:10018000B901CA010895E82FF894F0E0EE0FFF1FBF
:10019000EE0FFF1FEC57FE4F108211821282138266
:1001A0007894089583E084BD82E085BD16BCEEE6B8
:1001B000F0E080818160808310928401109285013B
:1001C0001092860110928701109288011092890185
:1001D00010928A0110928B0110928C0110928D0165
:1001E00010928E0110928F01109290011092910145
:1001F0001092920110929301789408951F920F9299
:100200000FB60F9211248F939F93AF93BF934A9B86
:1002100020C08091840190918501A0918601B091C8
:1002200087018093800190938101A0938201B09314
:100230008301109284011092850110928601109220
:1002400087011092900110929101109292011092E8
:100250009301BF91AF919F918F910F900FBE0F901F
:100260001F90189581E0809369008DBB08956817F1
:1002700018F0681B862F0895861B08950F931F930F
:100280008B019C01413061F0423079F04430B1F093
:10029000483069F14031F9F00E94F2028B019C0173
:1002A000B801C9011F910F910895369527951795AB
:1002B0000795B801C9011F910F91089536952795AB
:1002C000179507953695279517950795B801C90194
:1002D0001F910F91089544E036952795179507953E
:1002E0004A95D1F7B801C9011F910F91089553E0C4
:1002F00036952795179507955A95D1F7B801C901F5
:100300001F910F9108952F923F924F925F926F929B
:100310007F928F929F92AF92BF92CF92DF92EF9295
:10032000FF920F931F93DF93CF930F92CDB7DEB75A
:1003300083E084BD82E085BD16BC80916E00816043
:1003400080936E00109284011092850110928601B4
:1003500010928701109288011092890110928A01EF
:1003600010928B0110928C0110928D0110928E01CF
:1003700010928F01109290011092910110929201AF
:100380001092930178945298539A519A84B18F6342
:1003900084B98AB1806C8AB987B1837C87B981E0DE
:1003A000809369008DBBEE24FF248701222433242F
:1003B0002101AA24BB246501662477244301198204
:1003C0003499F1C019824A9BF5C05B98F8948091EA
:1003D000900190919101A0919201B0919301789434
:1003E0008E159F05A007B10778F480918001909148
:1003F0008101A0918201B09183010097A105B1050F
:1004000009F47AC04A9B78C0F89480918001909159
:100410008101A0918201B09183010097A105B105EE
:1004200009F0CAC08091900190919101A091920130
:10043000B0919301E816F9060A071B07A0F4809112
:10044000900190919101A0919201B09193018E1928
:100450009F09A00BB10B8093900190939101A09301
:100460009201B09393011092880110928901109229
:100470008A0110928B0110928C0110928D011092C2
:100480008E0110928F01789428982B98570168015B
:10049000D694C794B794A794C601B50148E10E94C9
:1004A000F2023B014C018CE0E816F1040105110554
:1004B00058F0EAE0AE16B104C104D10428F4FAE021
:1004C000AF2EB12CC12CD12CFCE02F1631044104ED
:1004D000510458F08AE0681671048104910428F4EC
:1004E000EAE06E2E712C812C912CC801B70148E1F5
:1004F0000E94F2021B012C01F894809188019091D6
:100500008901A0918A01B0918B0178948E159F0585
:10051000A007B10758F0F894109288011092890151
:1005200010928A0110928B0178942898F894809107
:100530008C0190918D01A0918E01B0918F017894E2
:1005400082159305A405B50558F0F89410928C0116
:1005500010928D0110928E0110928F0178942D9837
:10056000F8948091880190918901A0918A01B091BD
:100570008B0178948A159B05AC05BD0508F0289A77
:10058000F89480918C0190918D01A0918E01B09191
:100590008F01789486159705A805B90508F410CF42
:1005A0002D9A349B0FCF89818823B9F0E1E0E9834C
:1005B0004A990BCF5B9A0ACFE0908001F0908101BD
:1005C00000918201109183011092800110928101AB
:1005D000109282011092830146CF28982D98F1E065
:1005E000F983F1CE1F932F93222710E2660F771F16
:1005F000881F991F221F10F0241710F0241B616020
:0E0600001A95A1F72F911F910895F894FFCF3E
:10060E00FFFEFDFBF7EFDFBF7F3F9FCFE7F3F9FC68
:10061E00FAF5EBD7AF5F6FB7DBEDF6EEDDBB777BB1
:10062E00BDDEBE7D7E3E5E6E767A7CBCBAB6AE9E7A
:10063E009DADB5B9D9D5CDCBD3E3C7E3F1F81F8FB7
:10064E00D3E9F4ECB367DCF0E8D8B878746C5C3CB2
:10065E003A362E1E1D1B170F1B3363C3C6CC6663A3
:10066E00C6C3C5C9D1D2D46A352D5AB4AC562B4B9C
:10067E0096A653939555AA55AA55AA55AA55AA5565
:00000001FF
